:020000040800F2
:1000000098040020010100086B100008DF0F0008B1
:1000100069100008990100082D1400080000000074
:100020000000000000000000000000006F10000849
:100030009B010008000000006D100008711000080E
:100040001B0100081B0100081B0100081B01000820
:100050001B0100081B0100081B0100081B01000810
:100060001B0100081B0100081B0100081B01000800
:100070001B0100081B0100081B0100081B010008F0
:100080001B0100081B0100081B0100081B010008E0
:100090001B0100081B0100081B0100081B010008D0
:1000A0001B0100081B0100081B0100081B010008C0
:1000B0000D1100081B0100081B0100081B010008AE
:1000C0001B0100081B0100081B0100081B010008A0
:1000D0001B0100081B0100081B0100081B01000890
:1000E0001B0100081B0100081B010008DFF80CD0F1
:1000F00000F040F800480047FD1500089804002073
:100100000648804706480047FEE7FEE7FEE7FEE7B1
:10011000FEE7FEE7FEE7FEE7FEE7FEE7C5100008A4
:10012000ED000008D2B201E000F8012B491EFBD21D
:1001300070470022F6E710B513460A4604461946F2
:10014000FFF7F0FF204610BD30B50B4601460020FA
:100150002022012409E021FA02F59D4205D303FA89
:1001600002F5491B04FA02F52844151EA2F101020A
:10017000F1DC30BD064C074D06E0E06840F00103BD
:1001800094E8070098471034AC42F6D3FFF7B2FF6B
:100190007C1600089C160008FEE770472DE9F84F12
:1001A000DFF8B891002409F1040A0AF1040B234690
:1001B0000F270BF1040EC9E00125A5402A40AA42F1
:1001C0007DD1674ED1F804C0ACEB0608B44532D0FF
:1001D00014DCBCF1030F3AD009DCBCF1000F2AD0CB
:1001E000BCF1010F1CD0BCF1020F31D11DE0BCF1FC
:1001F000110F17D0BCF1120F2AD119E0B8F5881FE2
:1002000019D006DCB8F5803F15D0B8F5801F1FD196
:1002100011E0B8F5001F0ED0B8F5041F18D10AE0A0
:10022000CB6815E0CB681B1D12E0CB6808330FE0EC
:10023000CB680C330CE08B682BB1012B4FF008031B
:1002400003D0456104E0042302E0056100E00023DF
:10025000FF2A01D8064601E000F104064FEA8405B2
:1002600001D9A5F12005D6F8008007FA05FC28EA97
:100270000C0803FA05F548EA0508C6F800804D6841
:10028000ED0062D5374DAE6946F00106AE61AD694D
:1002900024F0030605F001050095334D06EB050C2F
:1002A000DCF80850A607360F07FA06F825EA080515
:1002B000DFF8B880404503D14FF0000817E044E074
:1002C000DFF8AC80404502D14FF001080FE0DFF8C5
:1002D000A480404502D14FF0020808E0DFF8988082
:1002E000404502D14FF0030801E04FF0040808FA3E
:1002F00006F848EA0508CCF808804D68D9F800608F
:10030000ED034D4601D5164300E096432E604D683F
:10031000DAF80060AD03554601D5164300E0964378
:100320002E604D68DBF80060ED025D4601D5164396
:1003300000E096432E604D68DEF80060AD02754621
:1003400001D5164300E096432E60641C0D682A46D2
:10035000E5407FF431AFBDE8F88F000000040140B4
:100360000000111000100240000001400008014090
:10037000000C014000100140001401400148806859
:100380007047000004000020024881680278114490
:100390008160704704000020074810B5016841F0F3
:1003A00010010160032000F075F8002000F006F84D
:1003B00000F024F8002010BD0020024070B50D4D63
:1003C00004464FF47A712878B1FBF0F00A490968C5
:1003D000B1FBF0F000F0ECFA48B9102C07D2002283
:1003E0002146501E00F036F800206C6070BD0120E0
:1003F00070BD000004000020100000200C4808B56B
:10040000816941F001018161816901F0010100917F
:10041000C16941F08051C161C06900F08050009015
:100420000448416821F0E06141F00071416008BD7D
:100430000010024000000140002809DB00F01F020C
:10044000012191404009800000F1E020C0F8001136
:1004500070470000F0B40E4B1B680C46C3F3022338
:10046000C3F10705042D00D90425191D072901D260
:10047000002300E0DB1E012606FA05F1491E21409B
:1004800099409E40761E16403143F0BC00F0E0BF1C
:100490000CED00E0064900F0070208684FF6FF0384
:1004A000184040EA0220034A1043086070470000E9
:1004B0000CED00E00000FA052DE9F0470F460500BD
:1004C00061D0434E306800F00700B84209D230686E
:1004D00020F0070038433060306800F00700B84271
:1004E00051D128683B4C810712D5400703D560687D
:1004F00040F4E06060602878000703D5606840F44D
:10050000605060606068A96820F0F0000843606097
:100510002878C00728D06868012810D021680228F0
:1005200010D0890700292EDA616821F00301014308
:100530006160FFF723FF804641F288390DE02168B2
:100540008903EFE78901EDE7FFF718FFA0EB08014A
:10055000494502D90320BDE8F0876068696800F06A
:100560000C00B0EB810FEFD1306800F00700B8420B
:100570000BD9306820F0070038433060306800F055
:100580000700B84201D00120E5E72878400705D5EB
:100590006068E96820F4E06008436060287800073C
:1005A00006D56068296920F4605040EAC1006060A7
:1005B00000F038F86168084AC1F30311515CC84083
:1005C0000649086006480068FFF7F8FE0020C2E709
:1005D00000200240001002406416000810000020B5
:1005E000080000200448054900684968044AC1F32E
:1005F0000221515CC84070471000002000100240EA
:10060000741600080448054900684968044AC1F3A3
:10061000C221515CC8407047100000200010024009
:100620007416000812A185B00FC98DE80F0014A040
:10063000144A006804905168134801F00C03042B1D
:1006400010D0082B0ED1C1F38343C9031DF803005A
:100650000AD5516804AAC1F34041515C0A4A50438B
:10066000B0FBF1F005B0704708494843FAE70000D5
:1006700002030405060708090A0B0C0D0E0F1010E3
:10068000010200000010024000127A0000093D0043
:100690002DE9F84F040070D02078C04DC00749D034
:1006A0006868C0F38100012807D06868C0F3810042
:1006B000022809D16868C00306D52868800339D5A7
:1006C00060680028E7D035E06068B0F5803F0BD067
:1006D00010B1B0F5A02F11D0286820F48030286028
:1006E000286820F4802002E0286840F480302860E8
:1006F000606890B1FFF742FE06460AE0286840F4C1
:1007000080202860F0E700BFFFF738FE801B6428D8
:1007100073D828688003F7D50CE0FFF72FFE064654
:1007200005E000BFFFF72AFE801B6428F0D8286888
:100730008003F7D420789A4E80074FF001094FF0DC
:10074000000839D5686810F00C0F07D06868C0F34E
:100750008100022809D16868C00306D42868800790
:1007600014D52069012808D110E02069B0B1C6F87D
:100770000090FFF703FE074605E00AE1FFF7FEFDE4
:10078000C01B0228C4D828688007F7D5286861698B
:1007900020F0F80040EAC10028600DE0C6F80080B3
:1007A000FFF7ECFD074604E0FFF7E8FDC01B022859
:1007B00023D828688007F7D4207800072CD57948FB
:1007C000A169D9B1C0F80090FFF7D8FD074604E051
:1007D000FFF7D4FDC01B02280FD8686A8007F7D541
:1007E00071484FF4FA510068B0FBF1F0009000BF7F
:1007F0000098411E0091FAD20EE080E0C0F800801F
:10080000FFF7BCFD074604E0FFF7B8FDC01B022858
:1008100075D8686A8007F7D42078400760D5E86902
:100820000027C00008D4E86940F08050E861E8691A
:10083000012700F0805000905C480168C90513D47E
:100840000168834641F480710160FFF797FD82469D
:1008500006E000BFFFF792FDA0EB0A0064284ED827
:10086000DBF80000C005F5D5E06801280AD008B122
:10087000052813D0286A20F001002862286A20F099
:10088000040002E0286A40F001002862E06841F2BA
:10089000883B98B1FFF772FD82460BE0286A40F072
:1008A00004002862EEE700BFFFF768FDA0EB0A0135
:1008B00059455AD8286A8007F6D50CE0FFF75EFD47
:1008C000824605E0FFF75AFDA0EB0A0159454CD8D6
:1008D000286A8007F6D41FB1E86920F08050E861EB
:1008E000E06988B36968C1F38101022944D0022814
:1008F000C6F8608004D0FFF741FD044638E034E0DC
:10090000FFF73CFD074604E0FFF738FDC01B022857
:100910002BD828688001F7D4206AB0F5803F05D134
:100920006868A16820F4003008436860D4E90801D1
:100930000843696821F4741108436860C6F8609040
:10094000FFF71CFD044606E025E000BFFFF716FD9B
:10095000001B022809D828688001F7D51BE000BFDA
:10096000FFF70CFD001B022802D90320BDE8F88F19
:1009700028688001F4D40EE00128F7D06868226A64
:1009800000F48031914204D1616A00F47010884211
:1009900001D00120EAE70020E8E700000010024053
:1009A00000004242800442421000002000700040DB
:1009B00010B5401EB0F1807F01D3012010BD4FF073
:1009C000E02460610F21601700F042FD0020A0616B
:1009D00007202061002010BD7047704770B590F867
:1009E0003C20012A19D0012400F83C4F0222427019
:1009F00050F83C3C5A689D6822F070060A684968C5
:100A0000324325F0800529435A6050F83C2C916010
:100A1000447000210170084670BD022070BD0000C6
:100A200010B5007F02280BD10421064800F0CFF951
:100A3000054908600146BDE8104004A000F0F8BC7C
:100A400010BD000018000020000000206D5F7075D0
:100A50006C73652069732025640A00002DE9F0415C
:100A6000044690F83C000D4601283BD0012684F84E
:100A70003C60022084F83D009AB3042A44D02068E8
:100A8000082A53D0D5E90027E968036A23F4805384
:100A90000362D0F81CC0036A2CF4407C4CEA0727A0
:100AA0004FF6FF7C27F470470CEA01313943770396
:100AB00023F4005307EA02321A43C161026220683C
:100AC000C16921F44061C1612068C169AA6841EA35
:100AD0000221C16184F83D60002084F83C00BDE83B
:100AE000F08101E00220FAE7D5E90012EB68206806
:100AF00000F0B4FB2068816921F00C01816120685D
:100B00008169AA6811430FE0D5E90012EB682068FB
:100B100000F0E2FB2068816921F440618161206876
:100B20008169AA6841EA02218161D3E7D5E9002CF5
:100B30002F7B016A21F480710162C169036A21F08F
:100B4000030141EA0C0121F0F00C39074FF4007762
:100B50004CEA116123F4007307EA02221A43C161CF
:100B600002622068C16921F00C01C1612068C1697D
:100B7000AA681143ADE710B5040003D094F83D0016
:100B800010B107E0012010BD002084F83C00204691
:100B900000F00CF8022084F83D00211D206800F0D0
:100BA000BBFA012084F83D00002010BD00B585B0DF
:100BB000002100910191029103910068B0F1804FF2
:100BC0001ED11048C16941F00101C161C16901F044
:100BD00001010491816941F00401816180696946E4
:100BE00000F004000490012000900748FFF7D6FAB7
:100BF000002211461C20FFF72DFC1C20FFF71CFCD7
:100C000005B000BD001002400008014010B50268A8
:100C1000044631B1042908D008291AD00C2908D17A
:100C20001BE0D06840F0020002E0D06840F0040011
:100C3000D0600122206800F0A5FA2068816801F0E8
:100C40000701062903D0016841F00101016000207D
:100C500010BDD06840F00800EAE7D06840F010000E
:100C6000E6E770B50446006801694FF00005C94326
:100C7000890715D4C168C943890711D4E91E0161E8
:100C800001202077206880698007204602D0FFF786
:100C9000C7FE04E000F098F8204600F096F82577AB
:100CA00020680169C943490717D4C168C943490786
:100CB00013D46FF00401016102202077206880695D
:100CC00010F4407F204602D0FFF7AAFE04E000F0B7
:100CD0007BF8204600F079F8257720680169C94340
:100CE000090716D4C168C943090712D46FF0080177
:100CF0000161042020772068C0698007204602D067
:100D0000FFF78EFE04E000F05FF8204600F05DF88B
:100D1000257720680169C943C90617D4C168C9434A
:100D2000C90613D46FF010010161082020772068F4
:100D3000C06910F4407F204602D0FFF771FE04E046
:100D400000F042F8204600F040F82577206801695D
:100D5000C943C90708D1C168C943C90704D1891E5D
:100D60000161204600F032F820680169C943090694
:100D700009D4C168C943090605D46FF08001016137
:100D80002046FFF729FE20680169C943490609D4B6
:100D9000C168C943490605D46FF04001016120468E
:100DA00000F055F820680169C94389060BD4C16871
:100DB000C943890607D46FF0200101612046BDE8D0
:100DC0007040FFF70ABE70BD70477047704702461B
:100DD000002041B1042909D008290AD00C2901D1E9
:100DE0001068006C70471068406B70471068806B2B
:100DF00070471068C06B704770B5044690F83C00AF
:100E0000012812D0012584F83C50022084F83D00CE
:100E1000204600F0CEF901004FF0000007D084F822
:100E20003D5084F83C00012070BD022070BD216857
:100E3000CA6822F04002CA602168CA6822F480426F
:100E4000CA6084F83D5084F83C00002070BD7047B3
:100E500070B5040004D094F83900002510B106E004
:100E6000012070BD84F83850204600F023F824207B
:100E700084F839002068C16821F40051C16020461F
:100E800000F046FA2068016921F490410161206870
:100E9000416921F02A0141612068C16841F4005193
:100EA000C160E563202084F8390084F83A0000200E
:100EB00070BD000030B585B0002400940194029408
:100EC000039400681449884224D11448816941F48C
:100ED00080418161816901F480410491816941F01F
:100EE0000401816180690E4D00F0040004904FF40C
:100EF000007000900220019003200390694628466C
:100F0000FFF74CF92815CDE90004694628460294FC
:100F1000FFF744F905B030BD003801400010024031
:100F2000000801402DE9F843044690F839001F46B7
:100F300016460D46202850D1A5B19EB194F8380030
:100F400001284AD0012084F838004FF00008C4F886
:100F50003C80212084F83900FFF710FAA6848146EE
:100F6000E68426E00120BDE8F883E08C401EE084A2
:100F7000A0684B46B0F5805F4FF000024FF0800153
:100F80002046009703D000F01FFAE8B90DE000F00A
:100F90001BFAC8B928882168C0F308004860206996
:100FA00008B16D1C05E0AD1C03E0216815F8010BCC
:100FB0004860E08C0028D8D14B46002240212046D2
:100FC000009700F001FA08B10320CCE7202084F854
:100FD000390084F838800020C5E70220C3E7FEE727
:100FE00030B58BB0142104A8FFF7A3F800241D48E6
:100FF000009401940294039409944FF080410A9460
:10100000016040F2CF21C0E901144CF25031C0E937
:1010100003148461FFF7AFFD0420049002255020E3
:10102000CDE90654059004A90E480894FFF7E4FEA4
:1010300001200095CDE90104002269460948039486
:10104000FFF70CFD042269460648CDE90045FFF78D
:1010500005FD099409A903480A94FFF7BFFC0BB0EA
:1010600030BD000018000020FEE770477047704751
:10107000FFF78AB930B58FB028216846FFF759F8D5
:1010800014210AA8FFF755F801210804CDE9001042
:101090000024029402250491CDE907504FF4E0109A
:1010A00009906846FFF7F4FA0F20CDE90A056802B7
:1010B000CDE90C4002210AA80E94FFF7FDF90FB00C
:1010C00030BD00000D48016841F001010160416838
:1010D0000B4A1140416001680A4A114001600168F1
:1010E00021F480210160416821F4FE0141604FF448
:1010F0001F0181600449C00308607047001002406E
:101100000000FFF8FFFFF6FE08ED00E00148FFF7E2
:10111000A8BD000018000020F0B50268164B174C5F
:10112000174D4FF08047984205D0B84203D0A042F7
:1011300001D0A84203D122F070064A683243984297
:1011400005D0B84203D0A04201D0A84203D122F476
:101150004074CA6822434C6922F080022243026034
:101160008A68C2620A688262984201D10969016391
:1011700001214161F0BD0000002C0140000400404D
:101180000008004010B501F01F030121046A9940D6
:101190008C430462016A9A401143016210BD10B58C
:1011A000846842EA032224F47F440A432243826093
:1011B00010BD10B503689A6822F070044A68224393
:1011C00022F007040A6822439A604A6812F00F0F5F
:1011D00030D11211082A2DD2DFE802F02C2C2C2C51
:1011E0000B2127040B69D1E902210068FFF7D7FF23
:1011F00020E00A68052A10D00268136A146A24F0F5
:101200000104146202689469096924F0F00444EA54
:1012100001119161006803620CE0012010BD0A69B0
:101220008968006800F008F804E00A6989680068C5
:1012300000F040F8002010BD10B5036A046A24F0E5
:1012400001040462846924F0F00444EA021423F0E7
:101250000A020A438461026210BD000070B5046A8C
:1012600024F0010404628469056A0F4EB04208D07C
:10127000B0F1804F05D00D4EB04202D00C4EB042BE
:1012800003D124F00304144301E044F001041A07DD
:1012900024F0F00444EA126225F00A0301F00A0186
:1012A00019438261016270BD002C014000040040BE
:1012B0000008004010B5036A23F01003036283693D
:1012C000046A23F4704343EA023224F0A00343EAA1
:1012D00001118261016210BD30B5046A24F010046E
:1012E00004628469056A24F4407444EA022222F408
:1012F00070444FF6FF7202EA03322243A02425F025
:10130000A00304EA011119438261016230BD0000AB
:101310002DE9F041044600680169E26821F440517A
:10132000114301612169A06808436169084321688C
:10133000CA6841F20C639A430243CA60206841695B
:10134000A26921F44071114341611E49206864255E
:101350003226884202D1FFF755F901E0FFF742F942
:1013600000EBC00101EB001160686FF0180780000E
:10137000B1FBF0F2B2FBF5F2B1FBF0F37A4303EB11
:101380008202B1FBF0F306EB0212B2FBF5F2B3FB03
:10139000F5F302F0F00202EB0312B1FBF0F3B1FB44
:1013A000F0F0B0FBF5F0784303EB800006EB0010A3
:1013B000B0FBF5F0216800F00F0010448860BDE834
:1013C000F0810000003801402DE9F04198461746B1
:1013D0000E460446069D1DE0681C1BD02DB1FEF78D
:1013E000CDFFA0EB0800A84214D92068C16821F401
:1013F000D071C1602068416921F001014161202064
:1014000084F8390084F83A00002084F8380003207A
:10141000BDE8F0812068006836EA000004D00020B2
:10142000B842D9D00020F3E70120F9E7FEE7000039
:101430000FB4054B10B503A9044A029800F028F830
:1014400010BC5DF814FB0000E51500081400002036
:101450000907090E002804DB00F1E02080F80014E1
:10146000704700F00F0000F1E02080F8141D704775
:1014700002E008C8121F08C1002AFAD1704770475D
:10148000002001E001C1121F002AFBD170470000BB
:101490002DE9FF4F89B09B460446002506E025282C
:1014A0000BD05A460B999047641C6D1C207800287D
:1014B000F5D10DB02846BDE8F08F0027B8460122CF
:1014C000474900E0074314F8013F203B02FA03F0CC
:1014D0000842F7D120782E2819D114F8010F47F0CF
:1014E00004072A280ED06FF02F022078A0F13001D7
:1014F00009290CD808EB880102EB410100EB010837
:10150000641CF2E70A98641C50F8048B0A90207857
:101510000028CED0642808D0692806D075281ED0AF
:101520005A460B9990476D1C58E00A994FF00A09EA
:1015300001C90A91002802DA40422D2102E0390552
:1015400004D52B218DF82010012103E0F90704D0E8
:101550002021F7E78A4608AE0DE00021FAE70A9954
:101560004FF00A0901C90A91F7E74946FEF7ECFD79
:10157000303106F8011D0028F7D1ADEB060000F16F
:101580002009780701D44FF00108C84502DDA8EB17
:10159000090000E000208046002706E008A85A461F
:1015A000C05D0B9990476D1C7F1C5745F6DB04E02E
:1015B00030205A460B9990476D1CB8F10001A8F1F4
:1015C0000108F5DC05E016F8010B5A460B99904727
:1015D0006D1CB9F10001A9F10109F4DC641C65E797
:1015E0000928010013B54FF6FF730122694602482E
:1015F000FFF798FC00981CBD5800002008B5FEF7C6
:10160000CBFEFFF737FD1448816941F0200181616D
:10161000816901F020010091816941F0040181613B
:10162000806900F004000090FFF7DAFC0C480B49D9
:101630000C2201604FF4E131416000218160C16002
:10164000C0E904128161C161FFF702FC0448042172
:101650004038FFF7DBFAFEE7001002400038014097
:1016600058000020000000000000000001020304F8
:101670000607080900000000010203049C16000888
:10168000000000201800000070140008B4160008C4
:1016900018000020800400008014000800000000F2
:1016A0000100000010000000000000000024F40011
:0416B0000000000036
:04000005080000ED02
:00000001FF
